S01700006D6174685F63616C63756C61746F722E73726563DA
S11300000C942A000C9447000C9447000C9447006D
S11300100C9447000C9447000C9447000C94470040
S11300200C9447000C9447000C9447000C94470030
S11300300C9447000C9447000C9447000C94470020
S11300400C9447000C9447000C9447000C94470010
S11300500C94470011241FBECFE5D8E0DEBFCDBF0E
S113006010E0A0E6B0E0ECE5F5E002C005900D92EA
S1130070A83AB107D9F720E0A8EAB0E001C01D9280
S1130080A83BB207E1F70E949C010C94AC020C94CB
S113009000000E947C00843511F00E948F010895B5
S11300A00E9492011092AB001092AA001092A90033
S11300B01092A80080E00DC0E82FF0E0EE0FFF1FC3
S11300C0EE0FFF1FE455FF4F10821182128213823C
S11300D08F5F833088F308950E9450000895CF9372
S11300E0C0E006C061E08CE08C0F0E944C02CF5F40
S11300F0C430C0F3CF910895FF920F931F93CF9311
S1130100DF930F2EF4E5FF2EF02D10E030C00CE04D
S1130110010F60E0802F0E944C02D0E018C0C8E1BB
S1130120CD0F8C2F0E948B02811110C0E12FF0E0C3
S1130130EE0FFF1FEE0FFF1FE05AFF4FED0FF11DF3
S1130140F0808C2F0E948B028823D9F3DF5FD43098
S113015030F32FEF84E39CE0215080409040E1F79E
S113016000C0000061E0802F0E944C021F5F143029
S113017070F28F2DDF91CF911F910F91FF90089511
S1130180CF93C82F60E081E00E944C026C2F661F61
S11301906627661F86E00E944C02C6FB662760F94C
S11301A085E00E944C02C5FB662760F984E00E944A
S11301B04C02C4FB662760F983E00E944C0261E0B4
S11301C082E00E944C028FEC97E00197F1F700C0A7
S11301D0000060E082E00E944C02C3FB662760F9E5
S11301E086E00E944C02C2FB662760F985E00E940B
S11301F04C02C1FB662760F984E00E944C026C2F1C
S1130200617083E00E944C0261E082E00E944C0233
S11302108FEC97E00197F1F700C0000060E082E006
S11302200E944C028FE99FE00197F1F700C00000A3
S1130230CF910895CF93C82F61E081E00E944C02D2
S11302406C2F661F6627661F86E00E944C02C6FB61
S1130250662760F985E00E944C02C5FB662760F9B9
S113026084E00E944C02C4FB662760F983E00E948C
S11302704C0261E082E00E944C028FEC97E001970F
S1130280F1F700C0000060E082E00E944C02C3FB72
S1130290662760F986E00E944C02C2FB662760F97B
S11302A085E00E944C02C1FB662760F984E00E944D
S11302B04C026C2F617083E00E944C0261E082E08A
S11302C00E944C0292E09A95F1F700C060E082E04F
S11302D00E944C0282E08A95F1F700C0CF91089504
S11302E02FE788E391E0215080409040E1F700C07F
S11302F0000082E00E94C00088E20E94C0008CE0FE
S11303000E94C00081E00E94C0008FEC97E001973A
S1130310F1F700C0000086E00E94C00008950E942A
S11303201A01089581E00E94C0008FEC97E00197C4
S1130330F1F700C0000008950E943C020E94700181
S11303400E946F000E946C000E944900FDCFCF9371
S1130350DF93982F969596959695282F277080323F
S113036008F087C0613081F120F0623009F457C091
S113037080C0892F90E0FC01EE0FFF1FDF01A80F62
S1130380B91FAA0FBB1FA057BF4F12960D90BC9167
S1130390A02D6C9141E050E0EA0102C0CC0FDD1FBA
S11303A02A95E2F79E01362F322B3C93E80FF91F72
S11303B0EE0FFF1FE057FF4F0190F081E02D808189
S11303C020952823208355C0892F90E0FC01EE0F4F
S11303D0FF1FDF01A80FB91FAA0FBB1FA057BF4FF4
S11303E012960D90BC91A02D6C9141E050E0EA0171
S11303F002C0CC0FDD1F2A95E2F79E012095362F0F
S113040032233C93E80FF91FEE0FFF1FE057FF4F15
S11304100190F081E02D8081282320832AC0892F38
S113042090E0FC01EE0FFF1FDF01A80FB91FAA0F18
S1130430BB1FA057BF4F12960D90BC91A02D6C917D
S113044041E050E0EA0102C0CC0FDD1F2A95E2F73B
S11304509E013C2F309536233C93E80FF91FEE0F95
S1130460FF1FE057FF4F0190F081E02D8081282B82
S11304702083DF91CF910895CF93C0E009C0EC2F82
S1130480F0E0E059FF4F60818C2F0E94A701CF5FFD
S1130490C032A8F3CF910895982F96959695969586
S11304A0282F27708032B0F56623D9F0613091F59A
S11304B0892F90E0FC01EE0FFF1FE80FF91FEE0FEC
S11304C0FF1FE057FF4F0190F081E02D308181E064
S11304D090E002C0880F991F2A95E2F7832B80834E
S11304E00895892F90E0FC01EE0FFF1FE80FF91F1C
S11304F0EE0FFF1FE057FF4F0190F081E02D308198
S113050081E090E002C0880F991F2A95E2F7809558
S1130510832380830895982F969596959695282FF2
S113052027708032B8F4892F90E0FC01EE0FFF1F92
S1130530E80FF91FEE0FFF1FE057FF4F0480F5810E
S1130540E02D808190E002C0959587952A95E2F789
S10F05508170089580E00895F894FFCFB6
S113055C3738392F3435362A3132332D43303D2B4D
S113056C000000000000000000000000000000007B
S113057C0000000000000000000001010101000067
S113058C3B003A003900380037003600350034009F
S10B059C33003200310030008D
S9030000FC
