S01700006D6174685F63616C63756C61746F722E73726563DA
S11300000C942A000C9447000C9447000C9447006D
S11300100C9447000C9447000C9447000C94470040
S11300200C9447000C9447000C9447000C94470030
S11300300C9447000C9447000C9447000C94470020
S11300400C9447000C9447000C9447000C94470010
S11300500C94470011241FBECFE5D8E0DEBFCDBF0E
S113006010E0A0E6B0E0E2E2F8E002C005900D92F4
S1130070A83AB107D9F720E0A8EAB0E001C01D9280
S1130080AF3BB207E1F70E94EB020C940F040C940F
S113009000000F931F93CF93C82FE091AE0044E06C
S11300A0E49FF0011124DF01AD54BF4F2D913D9128
S11300B04D915C91AAE0B0E00E94D3032C2F30E074
S11300C0205331098901330F220B330BDC01CB019F
S11300D0800F911FA21FB31F2091AB00222349F070
S11300E0B095A095909581959F4FAF4FBF4F1092BB
S11300F0AB008C019D01025010482F4F3F4F0D3F24
S11301001F4F2105310550F4ED54FF4F8083918337
S1130110A283B38381E08093AC0002C01092A80054
S1130120CF911F910F91089584E690E0A0E0B0E094
S11301308093AF009093B000A093B100B093B2004D
S113014081E08093A90008958B32F1F018F48A328B
S1130150B1F008958D32E9F08F3211F58091AC0041
S11301608823F1F08091AD008F5F8093AD00809182
S1130170AE008F5F8093AE001092AC000895809122
S1130180AC008111EFCF08958091AC008111EACFCA
S113019008958091AC008111E5CF81E08093AB009C
S11301A008950E94E1021092AE001092AD001092E8
S11301B0AC001092AB001092AA001092AF00109203
S11301C0B0001092B1001092B2001092A90081E028
S11301D08093A800E3EBF0E0108211821282138274
S11301E0148215821682178210861186128613864F
S11301F008950C94D100CF930E944C01C82F8435EC
S1130200F1F18D3381F040F480ED8C0F8A3070F47D
S11302108C2F0E9449000DC0833441F40E94D10008
S11302201092A80003C00E94940003C08C2F0E9467
S1130230A4008091A800882349F08C2F0E945A02C0
S11302408091AA008F5F8093AA0003C081E080930D
S1130250A8008091A900882391F060E081E00E94C9
S1130260D6026091AF007091B0008091B10090917E
S1130270B2000E945C021092AA001092A900CF91D1
S11302800895CF93CCE061E08C2F0E946003CF5F90
S1130290C031C9F7CF9108950F931F93CF93DF9384
S11302A0C0E01CE01C0F60E0812F0E946003D0E0DE
S11302B00AE10D0F802F0E94970381111DC024E0D5
S11302C0C29FF0011124E05AFF4FED0FF11DC081D0
S11302D0802F0E9497038823D9F38FEF93EF21E0B7
S11302E0815090402040E1F700C0000061E0812F80
S11302F00E9460038C2F0BC0DF5FD430C9F661E02D
S1130300812F0E946003CF5FC43059F684E5DF91EA
S1130310CF911F910F910895CF93C82F60E081E092
S11303200E9460036C2F661F6627661F86E00E948A
S11303306003C6FB662760F985E00E946003C5FB85
S1130340662760F984E00E946003C4FB662760F9B5
S113035083E00E94600361E082E00E9460038FEC0E
S113036097E00197F1F700C0000060E082E00E948E
S11303706003C3FB662760F986E00E946003C2FB4A
S1130380662760F985E00E946003C1FB662760F977
S113039084E00E9460036C2F617083E00E9460031C
S11303A061E082E00E9460038FEC97E00197F1F72F
S11303B000C0000060E082E00E9460038FE99FE0DB
S11303C00197F1F700C00000CF910895CF93C82F93
S11303D061E081E00E9460036C2F661F6627661F40
S11303E086E00E946003C6FB662760F985E00E94F0
S11303F06003C5FB662760F984E00E946003C4FBC8
S1130400662760F983E00E94600361E082E00E9455
S113041060038FEC97E00197F1F700C0000060E003
S113042082E00E946003C3FB662760F986E00E94B5
S11304306003C2FB662760F985E00E946003C1FB8C
S1130440662760F984E00E9460036C2F617083E08A
S11304500E94600361E082E00E94600392E09A954A
S1130460F1F700C060E082E00E94600382E08A95B8
S1130470F1F700C0CF9108952FE788E391E0215070
S113048080409040E1F700C0000082E00E948C01AF
S113049088E20E948C018CE00E948C0181E00E9421
S11304A08C018FEC97E00197F1F700C0000086E023
S11304B00C948C010C94E6018F929F92AF92BF92A0
S11304C0FF920F931F93CF93DF93CDB7DEB76E9751
S11304D00FB6F894DEBF0FBECDBF9B01AC01611512
S11304E071058105910591F480E36E960FB6F89439
S11304F0DEBF0FBECDBFDF91CF911F910F91FF9053
S1130500BF90AF909F908F900C94E60197FF0AC024
S113051050954095309521953F4F4F4F5F4FFF24A5
S1130520F39401C0F12C00E08AE0882E912CA12CD8
S1130530B12CCA01B901A50194010E94B403E1E000
S1130540F0E0EC0FFD1FE00FF11D605D608311E032
S1130550100F211531054105510511F0012FE9CF87
S1130560FF2051F0E1E0F0E0EC0FFD1FE10FF11D81
S11305708DE2808312E0100F112341F0FE01E10FA0
S1130580F11D80810E94E6011150F6CF6E960FB6E0
S1130590F894DEBF0FBECDBFDF91CF911F910F91B5
S11305A0FF90BF90AF909F908F900895811102C0EB
S11305B080E803C0813021F480EC860F0C948C0118
S11305C0089581E00E948C018FEC97E00197F1F788
S11305D000C0000008950E94F6020E943C020E949E
S11305E041010E94F9000E94FB00FDCF0F931F936D
S11305F0CF93DF93A0E7B0E040E056E021E030E0A5
S11306009D91E42FE695E695E695842F87709130C9
S1130610A9F1E0F0923009F04AC05E9FF001112484
S1130620E057FF4FC281D3816881890102C0000F66
S1130630111F8A95E2F7C801902F9095962398830D
S11306400190F081E02D9081892B30C05E9FF001F4
S11306501124E057FF4FC281D3816881890102C010
S1130660000F111F8A95E2F7C801962F982B9883E3
S11306700190F081E02D9081809517C05E9FF0017C
S11306801124E057FF4FC281D3816881890102C0E0
S1130690000F111F8A95E2F7C8018095962F9823C1
S11306A098830190F081E02D9081892380834F5FAE
S11306B0403209F0A5CFDF91CF911F910F9108959A
S11306C08032A0F5E82FE695E695E69587706623D7
S11306D0B9F0613059F566E0E69FF0011124E05766
S11306E0FF4F0190F081E02D408121E030E0B9011D
S11306F002C0660F771F8A95E2F7CB01842B15C0E1
S113070076E0E79FF0011124E057FF4F0190F0815C
S1130710E02D408121E030E0B90102C0660F771F6F
S11307208A95E2F7CB0180958423808308958032F3
S1130730C8F4E82FE695E695E69546E0E49FF001D7
S11307401124E057FF4F0480F581E02D208130E033
S11307508770A90102C0559547958A95E2F7CA01A9
S11307608170089580E00895052E97FB1EF400948F
S11307700E94CB0357FD07D00E94DE0307FC03D081
S11307804EF40C94CB0350954095309521953F4FF2
S11307904F4F5F4F089590958095709561957F4F69
S11307A08F4F9F4F08950E940004A59F900DB49F02
S11307B0900DA49F800D911D11240895A1E21A2E7D
S11307C0AA1BBB1BFD010DC0AA1FBB1FEE1FFF1FF1
S11307D0A217B307E407F50720F0A21BB30BE40B41
S11307E0F50B661F771F881F991F1A9469F7609588
S11307F07095809590959B01AC01BD01CF01089542
S1130800A29FB001B39FC001A39F700D811D11244D
S1130810911DB29F700D811D1124911D0895F894AE
S1050820FFCF04
S11308223738392F3435362A3132332D43303D2B84
S113083200000000000000000000000000000000B2
S1130842000000000000000000000202020200009A
S11308523B003A00390038003700360035003400D6
S10B08623300320031003000C4
S9030000FC
